:020000040800F2
:10000000285B0020750200087D0200087F020008BE
:100010008102000883020008850200080000000039
:10002000000000000000000000000000DD010008EA
:100030008902000800000000210200081D0B0008D2
:100040008F0200088F0200088F0200088F0200084C
:100050008F0200088F0200088F0200088F0200083C
:100060008F0200088F0200088F0200088F0200082C
:100070008F0200088F0200088F0200088F0200081C
:100080008F0200088F0200088F0200088F0200080C
:100090008F0200088F0200088F0200088F020008FC
:1000A0008F0200088F0200088F0200088F020008EC
:1000B0008F0200088F0200088F0200088F020008DC
:1000C0008F0200088F0200088F0200088F020008CC
:1000D0008F0200088D0B00088F0200088F020008B5
:1000E0008F0200088F0200088F0200088F020008AC
:1000F0008F0200088F0200088F0200088F0200089C
:100100008F0200088F0200088F0200088F0200088B
:100110008F0200088F0200088F0200088F0200087B
:100120008F0200088F0200088F0200088F0200086B
:1001300000F002F800F042F80AA090E8000C8244B7
:100140008344AAF10107DA4501D100F037F8AFF294
:10015000090EBAE80F0013F0010F18BFFB1A43F0A5
:10016000010318470C3100002C310000103A24BF65
:1001700078C878C1FAD8520724BF30C830C144BF0C
:1001800004680C607047000000230024002500264E
:10019000103A28BF78C1FBD8520728BF30C148BFEA
:1001A0000B607047642900F0F180732900F0FE8134
:1001B000002070471FB51FBD10B510BD00F08BFAB1
:1001C0001146FFF7F7FF00F033FF00F0A9FA03B480
:1001D000FFF7F2FF03BC00F09CFE0000224B196801
:1001E0000868B0E8F00F80F30988BFF36F8F4FF015
:1001F000000080F311884EF00D0E704700000000E3
:1002000006480068006880F3088862B661B6BFF3EC
:100210004F8FBFF36F8F00DF00BF00BF08ED00E01E
:10022000EFF30980BFF36F8F0F4B1A6820E9F00FCF
:10023000106008B54FF0500080F31188BFF34F8F66
:10024000BFF36F8F02F052F94FF0000080F3118876
:10025000BDE8084019680868B0E8F00F80F3098825
:10026000BFF36F8F704700BF40000020EFF30580A1
:10027000704700000948804709480047FEE7FEE74D
:10028000FEE7FEE7FEE7FEE7FEE7FEE7FEE7FEE746
:1002900004480549054A064B704700002D0B00082D
:1002A0003101000828550020285B00202857002035
:1002B00028570020704700000FB4044910B503AA66
:1002C000029800F077F910BC5DF814FB10000020D4
:1002D0002DE9F0410E460446002020622046E168E8
:1002E000884730B3252805D0D4E901219047206AFA
:1002F000401CF2E7E168204600278847050018D037
:10030000A5F14100192802D820354FF40067324684
:10031000294620462760FFF745FF40B1012804D059
:10032000F61D26F007060836D8E7361DD6E728461C
:10033000DAE7206ABDE8F08170B50C460546012A6F
:1003400005D02878800600D5EA69002302E0012361
:1003500005E05B1C934202D2E05C0028F9D1A86959
:10036000E618C01AA861286A184428622846AFF324
:10037000008004E0D5E9012114F8010B9047B44254
:10038000F8D32846AFF3008070BD00002DE9F0419E
:100390000646002410687529314616A510D0AFF323
:1003A0000080002802DA404213A507E031688A077E
:1003B00001D512A502E0490704D511A5012401E0E9
:1003C000AFF3008000210A2206F1240709E0B0FB08
:1003D000F2FCB0FBF2F302FB1C00303078541846FC
:1003E000491C0028F3D123462A463046BDE8F04197
:1003F00000F059B8000000002D0000002B000000A4
:1004000020000000032A40F2308010F0030C00F0BE
:10041000158011F8013BBCF1020F624498BF11F83E
:1004200001CB00F8013B38BF11F8013BA2F10402F7
:1004300098BF00F801CB38BF00F8013B11F003036F
:1004400000F0CA80083AC0F0088051F8043B083A2E
:1004500051F804CBA0E80810F5E7121D5CBF51F875
:10046000043B40F8043BAFF30080D20724BF11F8EF
:10047000013B11F801CB48BF11F8012B24BF00F854
:10048000013B00F801CB48BF00F8012B704702F098
:10049000FF0343EA032242EA024200F0D1B8704768
:1004A0007047704770472DE9F0470D4699469246D0
:1004B000044600F124080168880604D5E06921F0AB
:1004C0001001216000E00120A84201DD471B00E08F
:1004D0000027A1697A1902EB0900081AA0612078A7
:1004E000C00602D42046AFF30080002608E0D4E91D
:1004F00001211AF806009047206A401C761C2062F1
:100500004E45F4DB2078C0060AD52046AFF30080C4
:1005100006E0D4E9012130209047206A401C206287
:10052000381EA7F10107F4DC07E0D4E9012118F82F
:1005300005009047206A401C2062281EA5F1010595
:10054000F3DC2046AFF300802078000602D50220BD
:10055000BDE8F0870120FBE701694A1C02610878C9
:10056000704700B58FB0CDE90131002105910549F3
:100570007944CDE9031011466846FFF7A9FE0FB094
:1005800000BD0000E5FFFFFF10B5436913B1AFF3F5
:10059000008001E0FFF7D0FE012010BD127800F1CD
:1005A00024010A7000224A700122EDE711684FF021
:1005B000FF32E9E7074B70B50D467B44FFF7D1FFEB
:1005C0000446284600F05CF810B14FF0FF3070BDD3
:1005D000204670BD130A000010B5203AC0F00B8011
:1005E000B1E81850203AA0E81850B1E81850A0E837
:1005F0001850BFF4F5AF5FEA027C24BFB1E8185091
:10060000A0E8185044BF18C918C0BDE810405FEA00
:10061000827C24BF51F8043B40F8043B08BF70477C
:10062000D20728BF31F8023B48BF11F8012B28BF81
:1006300020F8023B48BF00F8012B70474FF0000242
:100640000429C0F0128010F0030C00F01F80CCF1E0
:10065000040CBCF1020F18BF00F8012BA8BF20F852
:10066000022BA1EB0C0100F011B85FEAC17C24BFA2
:1006700000F8012B00F8012B48BF00F8012B704750
:10068000007B00F0800070474FF0000200B5134679
:1006900094469646203922BFA0E80C50A0E80C50A2
:1006A000B1F12001BFF4F7AF090728BFA0E80C5053
:1006B00048BF0CC05DF804EB890028BF40F8042B4C
:1006C00008BF704748BF20F8022B11F0804F18BFB9
:1006D00000F8012B7047754600F028F8AE4605007B
:1006E0006946534620F00700854618B020B5FFF74D
:1006F000CFFDBDE820404FF000064FF000074FF05F
:1007000000084FF0000B21F00701AC46ACE8C0092F
:10071000ACE8C009ACE8C009ACE8C0098D46704738
:100720000446AFF300802046FFF751FD00487047B4
:10073000C85400202DE9F041024600250026002083
:1007400000230024002791F803C00CF00F0591F856
:1007500003C00CF0100CBCF1000F03D091F802C0E4
:100760004CEA050591F800C0BCF1000F31D01468C7
:1007700000202BE04FF0010C0CFA00F3B1F800C0A0
:100780000CEA03069E4220D183004FF00F0C0CFAB6
:1007900003F7BC4305FA03FC4CEA040491F803C0D8
:1007A000BCF1280F06D14FF0010C0CFA00FCC2F886
:1007B00014C00AE091F803C0BCF1480F05D14FF016
:1007C000010C0CFA00FCC2F810C0401C0828D1D360
:1007D0001460B1F800C0BCF1FF0F34DD5468002094
:1007E0002EE000F1080C4FF0010808FA0CF3B1F804
:1007F00000C00CEA03069E4221D183004FF00F0C8B
:100800000CFA03F7BC4305FA03FC4CEA040491F824
:1008100003C0BCF1280F05D100F1080C08FA0CF850
:10082000C2F8148091F803C0BCF1480F07D100F161
:10083000080C4FF0010808FA0CF8C2F81080401CB0
:100840000828CED35460BDE8F08141617047016152
:100850007047000070B5002100230F22C47804B354
:10086000154C246804F4E064C4F5E064210AC1F185
:100870000403CA40447804FA03F184781440214305
:1008800009010E4C0678A155047804F01F050124D7
:10089000AC4005786D11AD0005F1E025C5F80041CB
:1008A00009E0047804F01F050124AC40044D0678EB
:1008B000761145F8264070BD0CED00E000E400E044
:1008C00080E100E002490143024A116070470000E4
:1008D0000000FA050CED00E029B1064A1269024356
:1008E000044B1A6104E0034A12698243014B1A6106
:1008F000704700000010024029B1064A9269024385
:10090000044B9A6104E0034A92698243014B9A6165
:10091000704700000010024029B1064AD268024325
:10092000044BDA6004E0034AD2688243014BDA6088
:10093000704700000010024030B500210022002462
:1009400000232D4D6D6805F00C0121B1042905D05F
:10095000082923D105E0294D056022E0274D0560D7
:100960001FE0254D6D6805F47012234D6D6805F488
:100970008034022505EB92421CB9214D5543056098
:100980000BE01D4D6D6805F400351DB11C4D554340
:10099000056002E0194D5543056002E0174D056002
:1009A00000BF00BF144D6D6805F0F0010909154D39
:1009B0006B5C0568DD4045600F4D6D6805F4E061D6
:1009C000090A104D6B5C4568DD4085600A4D6D6815
:1009D00005F46051C90A0B4D6B5C4568DD40C5608C
:1009E000054D6D6805F44041890B074D6B5CC5688A
:1009F000B5FBF3F5056130BD0010024000127A002E
:100A000000093D00160000202600002010B500F06F
:100A100001F810BD0CB5002001900090334800682B
:100A200040F480303149086000BF3048006800F46D
:100A3000003000900198401C0190009818B901986E
:100A4000B0F5A06FF1D12948006800F4003010B172
:100A50000120009001E0002000900098012843D17F
:100A60002348006840F010002149086008460068EB
:100A700020F0030008600846006840F002000860AB
:100A80001A48406819494860084640684860084666
:100A9000406840F4806048600846406820F47C105C
:100AA00048600846406840F4E8104860084600681E
:100AB00040F08070086000BF0C48006800F00070D3
:100AC0000028F9D00948406820F003000749486031
:100AD0000846406840F00200486000BF0348406894
:100AE00000F00C000828F9D10CBD000000100240F5
:100AF00000200240042808D14FF0E021096941F0AC
:100B000004014FF0E022116107E04FF0E021096994
:100B100021F004014FF0E0221161704710B502F09E
:100B200003F9012801D001F085FD10BD10B513486F
:100B3000006840F00100114908600846406810490B
:100B400008400E494860084600680E4908400B49B5
:100B500008600846006820F4802008600846406865
:100B600020F4FE0048604FF41F008860FFF74EFF3E
:100B70004FF000600449086010BD00000010024002
:100B80000000FFF8FFFFF6FE08ED00E010B540F2B0
:100B900025511D4800F0F9F810B31B4800F0B0F9DA
:100BA000C4B21A48008800F40040C8B91748008849
:100BB00000F4804060B10A2C03D000201349088063
:100BC00020E01248008840F400401049088019E0F5
:100BD0000D2C06D10D48008840F480400B49088058
:100BE00010E00A480088C0F30D0009490C5407487A
:100BF0000088401C0549088008460088C72801DD98
:100C00000020088010BD00000038014014000020C2
:100C1000B400002010B586B00446012144F204005F
:100C2000FFF76AFE234800F055F84FF40070ADF866
:100C3000140003208DF8160018208DF8170005A960
:100C40001D48FFF777FD4FF48060ADF814000420D5
:100C50008DF8170005A91848FFF76CFD01940020D6
:100C6000ADF80800ADF80A00ADF80C00ADF81000C2
:100C70000C20ADF80E0001A90E4800F0D5F8252093
:100C80008DF8000003208DF801008DF8020001208E
:100C90008DF803006846FFF7DDFD012240F2255183
:100CA000044800F09CF80121024800F007F806B063
:100CB00010BD0000003801400008014021B18289C8
:100CC00042F40052828104E082894DF6FF731A409B
:100CD0008281704710B504462048844209D1012121
:100CE0008803FFF719FE00214FF48040FFF714FE40
:100CF00032E01B48844209D101214804FFF7ECFD92
:100D000000214FF40030FFF7E7FD25E0154884424D
:100D100009D101218804FFF7DFFD00214FF4802075
:100D2000FFF7DAFD18E01048844209D10121C80418
:100D3000FFF7D2FD00214FF40020FFF7CDFD0BE0BF
:100D40000A48844208D101210805FFF7C5FD0021AA
:100D50004FF48010FFF7C0FD10BD000000380140C7
:100D60000044004000480040004C0040005000405B
:100D700002460020B1F5007F00D100BF13880B4070
:100D80000BB1012000E00020704770B5024600243E
:100D900000230025002040F66A16B14200D100BFB2
:100DA000C1F3421501F01F03012606FA03F3012DDA
:100DB00002D19689334006E0022D02D1168A3340D3
:100DC00001E0968A33400C12012606FA04F41688D4
:100DD000344013B10CB1012000E0002070BDF0B52B
:100DE0000346002400260025002040F66A17B94279
:100DF00000D100BF1846C1F3421401F01F060127BD
:100E000007FA06F5012C01D10C3004E0022C01D1C7
:100E1000103000E014301AB107682F43076002E079
:100E20000768AF430760F0BD2DE9F04786B005467F
:100E30000E460024A24600BFA1460027B08900B19B
:100E400000BF2F462C8A4CF6FF700440F088044304
:100E50002C82AC894EF6F3100440B08831890843E7
:100E6000718908430443AC81AC8A4FF6FF400440CB
:100E7000B0890443AC8201A8FFF75EFD1F4887429A
:100E800002D1DDF810A001E0DDF80CA0A88900F483
:100E9000004040B10AEBCA0000EB0A10316849007B
:100EA000B0FBF1F807E00AEBCA0000EB0A1031686A
:100EB0008900B0FBF1F86420B8FBF0F004012009D0
:100EC000642101FB1089A88900F4004040B1322060
:100ED00000EBC900B0FBF1F000F00700044308E0AC
:100EE000322000EB09106421B0FBF1F000F00F009C
:100EF00004432C8106B0BDE8F087000000380140B3
:100F000001468888C0F308007047C1F30802828058
:100F1000704700BF7047000010B50420FFF7EAFDDE
:100F20000E4800680E49B0FBF1F00E4908700B48FE
:100F300000680D49B0FBF1F44CF2503044434FF0DF
:100F4000E020006940F002004FF0E021086108460F
:100F50004461006940F00100086110BD2C000020D0
:100F600040420F000C00002000127A0070B50346CA
:100F700000224FF0E02675690E4E367803FB06F42A
:100F800000BF4FF0E026B16910E04FF0E026B069F5
:100F900088420BD0884202D20E1A324402E02E1A46
:100FA0000E4432440146A24200D300E0EDE700BF08
:100FB00070BD00000C00002030B50446002504E0A0
:100FC0004FF47A70FFF7D2FF6D1CA542F8D330BD05
:100FD00070B504460D4600BF40210548FFF7C8FE26
:100FE0000028F9D0E1B20248FFF78FFF204670BD1C
:100FF0000038014008B501211020FFF77DFCFF20DB
:10100000ADF8000010208DF8030003208DF80200D9
:1010100069460648FFF78EFBFF210448FFF717FCDF
:1010200002210248FFF711FC08BD0000001001403A
:101030001CB54FF4A060FFF745FC4FF41650FFF7C6
:10104000E9FDFFF769FFFFF7D5FF08A0FFF734F9C7
:101050000A48012100238022CDE9001008A10B4895
:1010600001F032FE01F0E4F900201CBD48656C6C13
:101070006F20776F726C64210D0A00000000002061
:1010800073746172745F7461736B0000091D0008F2
:101090002DE9F04105460E461C4807681C480068CB
:1010A000001D00F0AFFE50B91948006890F82C10F0
:1010B0000120884017490968814316480160681C6F
:1010C00038B936B112480168091D134800F0D8FE3E
:1010D0001AE07C190E4800684460BC4207D20C48F4
:1010E0000168091D0D48006800F0B0FE0CE00848DA
:1010F0000168091D0A48006800F0A8FE0948006858
:10110000844201D207480460BDE8F0815400002009
:1011100040000020580000208C04002048000020DF
:10112000440000207000002010B5044600F0B4FE1A
:1011300024480068401C234908602348006840B9DF
:10114000214804600846006801280DD100F0EEF93E
:101150000AE01E48006838B91B480068C06AE16AA6
:10116000884201D81848046019480068401C184992
:10117000086008460068606494F82C1001208840DC
:1011800014490968084313490860E16A01EB8101C9
:10119000114A02EB8100211D00F072FE00F0BEFE3C
:1011A0000A48006868B108480068C06AE16A884275
:1011B00007D24FF0805009490860BFF34F8FBFF34B
:1011C0006F8F10BD50000020400000205C00002008
:1011D0006C00002058000020BC01002004ED00E05D
:1011E00010B500F059FE10480068D0B90F4800F063
:1011F0001DFE0F4800F01AFE0C480E4908600C480E
:101200000D49086000221021052001F02DFA064941
:1012100008600846006820B108A10348006800F093
:1012200069FF00F07BFE10BD84000020A0040020B8
:10123000B40400207C00002080000020546D725116
:101240000000000070B523E001F048F91348006881
:1012500008B9012000E00020054601F0F1FEBDB90B
:1012600000F01AFE0D48C068C468201D00F0CAFDD9
:101270000B480068401E0A4908600A480068401E82
:101280000849086000F04AFE204600F060F800BF00
:10129000044800680028D7D170BD00007804002001
:1012A000500000204C00002070B504460D46206C14
:1012B00070B1216CE0680844E0606168E0688842D1
:1012C00001D32068E0602846226CE168FFF79AF8B5
:1012D00070BD2DE9F04104460F4615464FF0000859
:1012E000A66B206C40B9206860BB606801F0E2FD2D
:1012F00080460020606025E07DB93946226CA068F8
:10130000FFF780F8216CA0680844A060D4E90110C0
:10131000884217D32068A06014E03946226CE06848
:10132000FFF770F8216CE068401AE0602168E0681F
:10133000884203D2216C6068401AE060022D01D11E
:1013400006B1761E701CA0634046BDE8F08110B562
:101350000446206B00F018FE204600F015FE10BD7C
:101360000146084A126812680AB9012200E0002208
:101370000A600A6822B9034A1268D268106800E05D
:10138000002070477C00002030B54FF4A043174880
:1013900000F007042CB1C01D20F00700134C041B03
:1013A0001B1B0246124C22600024114D6C60D018A9
:1013B000083820F007000F4C206000240D4D2D68E8
:1013C0006C600C4D2D682C601146441A4C60094C21
:1013D00024680C60084D4C682C60084D4C682C60EB
:1013E0004FF00044064D2C6030BD0000C8040020C2
:1013F0009000002098000020A00000209C00002009
:10140000A400002000BFFFF71DFF06480068012868
:10141000F9D94FF0805004490860BFF34F8FBFF3F4
:101420006F8FF0E7BC01002004ED00E02DE9F041F2
:1014300006460D4617469846069C0DB9246000E006
:101440002760E66325640121204601F02BFA84F829
:1014500050800020A064BDE8F08100002DE9F05F1D
:1014600082460F4690469B460A9E0C9C4FEA880196
:10147000A522206BFFF70BF8A8F10100216B01EB0F
:10148000800929F0070909F0070008B9012000E0E8
:10149000002028B940F22B321BA120A0FEF70CFF40
:1014A000002507E0795D04F134004155785D00B90D
:1014B00002E06D1C102DF5D300BF00214320015523
:1014C000202E00D31F26E662E66400202065201D42
:1014D00000F0B9FC04F1180000F0B5FC2461C6F17D
:1014E0002000A06164620020606584F858005A46BC
:1014F0005146484600F0F6FB20600B9808B10B9867
:101500000460BDE8F09F00004672656552544F5379
:101510005C7461736B732E63000000004572726F20
:10152000723A25732C25640D0A00000010B50024C2
:1015300007E004EB84010F4A02EB810000F076FC27
:10154000641C202CF5D30C4800F070FC0B4800F014
:101550006DFC0B4800F06AFC0A4800F067FC0A4882
:1015600000F064FC04480949086004480849086020
:1015700010BD0000BC0100203C04002050040020ED
:1015800064040020780400208C0400204400002023
:101590004800002010B50146164800E000680368C6
:1015A0008B42FBD30246436813448B4204D1436809
:1015B0004C682344436001460A464B681344046860
:1015C000A34211D10C4C03682468A34208D04B6895
:1015D0000468646823444B6003681B680B6005E083
:1015E000054B1B680B6001E003680B60884200D06C
:1015F000016010BD90000020980000202DE9F0410E
:1016000004460D4616461F464FF0000865602461EB
:10161000B5420CD8F01BA169884202D34FF00108F3
:1016200011E0211D0948006800F010FC0BE0BE42EB
:1016300004D2BD4202D34FF0010804E0211D04484A
:10164000006800F003FC4046BDE8F0818000002007
:101650007C00002070B5054600F01EFCA86B08B9A0
:10166000012400E0002400F059FC204670BD70B554
:10167000054600F011FCA86BE96B884201D10124FA
:1016800000E0002400F04AFC204670BD2DE9F34143
:101690000D460098846C00272CB940F6CE121AA192
:1016A0001EA0FEF709FEA06BE16B884201D201206B
:1016B00000E0002028B940F6CF1213A117A0FEF7D2
:1016C000FBFDA06BE16B88421BD294F945602A4672
:1016D00069462046FFF7FDFD0746701C60B9606A49
:1016E00008B9012000E0002050B904F1240001F005
:1016F0004DFC28B1012703E0701C40B284F845007E
:1017000000BF3846BDE8FC814672656552544F53B0
:101710005C71756575652E63000000004572726F1F
:10172000723A25732C25640D0A000000F8B50546B1
:101730000F4613480068C068C468201D00F062FBB3
:10174000E069012818D1A06941192B463A46204684
:10175000FFF754FF80B1002003462A46014600905F
:10176000204601F035FD06462EB94FF4027205A160
:1017700009A0FEF7A1FD00BF2046616A8847F8BDB9
:101780007C0000204672656552544F535C74696D4D
:101790006572732E630000004572726F723A257392
:1017A0002C25640D0A000000F0B587B070E00398A6
:1017B00000280CDA04AE2EB940F2E7223AA13FA08D
:1017C000FEF77AFDD6E90020B168904700BF039884
:1017D00000285DDB059C606908B9012000E000205D
:1017E00010B9201D00F00EFB02A800F0C5F8054658
:1017F00003980A284AD2DFE800F00905072C2E4595
:1018000006082D2F00BF00BF00BF00BF0498A269CB
:10181000811803462A462046FFF7F0FEC0B1204655
:10182000616A8847E069012812D10020009004987D
:10183000A169421800231946204601F0C9FC074659
:101840002FB940F2213218A11CA0FEF735FD00BFD0
:101850001DE000BF1BE000BF0498A061A06908B1B3
:10186000012000E0002028B94FF44E720EA113A011
:10187000FEF722FDA06941192B462A462046FFF7B4
:10188000BDFE04E0204600F07FFB00E000BF00BF8B
:1018900000231A4603A90D48006800F01FFF002826
:1018A00085D107B0F0BD00004672656552544F53B4
:1018B0005C74696D6572732E630000004572726F0F
:1018C000723A25732C25640D0A0000008400002064
:1018D000F8B505460C4600F001FE684600F04CF8ED
:1018E0000646009820BB44B9B54206D801F0A8FBD3
:1018F00031462846FFF71AFF1CE03CB10E4800684D
:10190000006808B9012000E000200446A91B224617
:101910000A48006800F004FC01F092FB50B94FF057
:10192000805007490860BFF34F8FBFF36F8F01E00E
:1019300001F086FBF8BD000080000020840000203C
:1019400004ED00E00A490968096809B9012100E0CD
:10195000002121B14FF0FF31064A116006E0044931
:101960000968C968C868034A416811607047000087
:10197000440000207000002070B5044601F0E4F936
:10198000054607480068854204D200F00BF80120A4
:10199000206001E00020206001480560284670BDFD
:1019A0008C0000202DE9F8432DE021480068C06834
:1019B00005681F480068C068C468201D00F022FA4E
:1019C0002046616A8847E06901281CD1A069461950
:1019D000AE4207D966602461211D1548006800F0F9
:1019E00035FA10E0002003462A46014600902046C2
:1019F00001F0EEFB07462FB940F292320DA112A082
:101A0000FEF75AFC00BF0A480068006808B90120C8
:101A100000E000200028C8D00548D0F800800E481B
:101A20000068034908600C48C0F80080BDE8F883EE
:101A30007C0000204672656552544F535C74696D9A
:101A40006572732E630000004572726F723A2573DF
:101A50002C25640D0A000000800000200B4800685F
:101A6000401C08B9012000E0002020B9F42208A1A0
:101A700011A0FEF721FC00BF502080F31188BFF3B6
:101A80004F8FBFF36F8F00BF00BFFEE7A80000209D
:101A90004672656552544F535C706F727461626C2C
:101AA000655C525644535C41524D5F434D335C700C
:101AB0006F72742E630000004572726F723A257364
:101AC0002C25640D0A00000008B500BF6846FFF72A
:101AD00047FC044620460099FFF7FAFEFFF764FE34
:101AE000F4E770B5044600F0D7F994F945501AE0D0
:101AF000A06C38B100212046FFF7C8FD88B100F086
:101B0000BBFB0EE0606A08B9012000E0002038B994
:101B100004F1240001F03AFA18B100F0ADFB00E046
:101B200003E0681E45B2002DE2DC00BFFF2084F810
:101B3000450000F0F3F900F0AFF994F9445010E0DB
:101B4000206908B9012000E0002048B904F1100024
:101B500001F01CFA08B100F08FFB681E45B200E0EE
:101B600001E0002DECDC00BFFF2084F8440000F011
:101B7000D5F970BD2DE9F04104464FF0000800F0A2
:101B8000ADFC3E48006808B9FFF7FEFB3C48006822
:101B9000204000285FD1A4B1083404F0070080B1D0
:101BA00004F00700C0F10800044404F0070008B97D
:101BB000012000E0002020B9BF2232A13AA0FEF7A8
:101BC0007BFB002C47D03C480068844243D83B4E06
:101BD0003046056801E02E462D686868A04202D2B2
:101BE00028680028F7D125480068854233D030683E
:101BF00000F10808286830606868001B102813D9B5
:101C00002F1907F0070008B9012000E0002020B9D3
:101C1000EC221CA124A0FEF74FFB6868001B786033
:101C20006C603846FFF7B6FC234968680968081AF3
:101C3000214908600846006821490968884203D2A2
:101C40001D4800681E4908600D4968680968084316
:101C500068600020286001F0F3F908F0070008B977
:101C6000012000E0002028B94FF4967205A10EA0D3
:101C7000FEF722FB4046BDE8F081000098000020FE
:101C8000A40000204672656552544F535C706F7219
:101C90007461626C655C4D656D4D616E675C686515
:101CA00061705F342E6300004572726F723A257363
:101CB0002C25640D0A0000009C00002090000020EC
:101CC000A00000200648006830B10549096801F10C
:101CD0005000096D491C0160014800687047000010
:101CE00040000020001F4FF080730360001F21F0B0
:101CF00001030360001F034B0360143802602038A7
:101D0000704700005D1A00081CB5044600F0C4F8D6
:101D10000D48022100238022CDE900100BA10E48BE
:101D200000F0D2FF0D48022100238022CDE90010EF
:101D30000BA10E4800F0C8FF0D48006800F016FA2D
:101D400000F0ECF81CBD0000040000207461736B0F
:101D5000315F7461736B0000751D0008080000207E
:101D60007461736B325F7461736B0000BD1D00089A
:101D700000000020002414E0601CC4B20948006880
:101D800008B9012000E000200649086000F084F84E
:101D9000214605A0FEF790FA00F0C0F80A20FFF7F0
:101DA0000BF9E9E7800122427461736B313A202517
:101DB000642074696D650D0A00000000002414E0C1
:101DC000601CC4B20948006808B9012000E0002086
:101DD0000649086000F060F8214605A0FEF76CFA9D
:101DE00000F09CF80A20FFF7E7F8E9E784012242B7
:101DF0007461736B323A2025642074696D650D0A35
:101E00000000000001460A69D1E901309860D1E97B
:101E1000010358605068884201D1886850600020F2
:101E200008611068401E10601068704700F10801DA
:101E300041604FF0FF31816000F10801C160016134
:101E400000210160704700210161704710B5024612
:101E50000B685C1C0CB9106907E002F1080000E097
:101E60004068446824689C42FAD944684C604C68D5
:101E7000A160886041600A611468641C146010BD30
:101E800042684A6093688B6093685960916008610A
:101E900003685B1C0360704710B500BF502080F3DF
:101EA0001188BFF34F8FBFF36F8F00BF0B480068DF
:101EB000401C0A4908600846006801280DD10848FE
:101EC0000068C0B208B9012000E0002028B94FF432
:101ED000BD7204A10DA0FEF7EFF910BDA80000200F
:101EE00004ED00E04672656552544F535C706F72AA
:101EF0007461626C655C525644535C41524D5F4361
:101F00004D335C706F72742E630000004572726F07
:101F1000723A25732C25640D0A00000010B50B4899
:101F2000006828B940F2811209A113A0FEF7C4F994
:101F300006480068401E054908600846006820B948
:101F4000002080F3118800BF00BF10BDA800002052
:101F50004672656552544F535C706F727461626C67
:101F6000655C525644535C41524D5F434D335C7047
:101F70006F72742E630000004572726F723A25739F
:101F80002C25640D0A00000070B506463546002E6B
:101F900035D0083D2C461A4960680968084008B1E8
:101FA000012000E0002028B94FF4A07215A11EA066
:101FB000FEF782F9206808B9012000E0002028B966
:101FC00040F241120FA118A0FEF776F90C496068A3
:101FD0000968084098B1206888B9094960680968AB
:101FE0008843606000F07AFA134960680968084421
:101FF000114908602046FFF7CDFA01F021F870BDC5
:10200000A40000204672656552544F535C706F7295
:102010007461626C655C4D656D4D616E675C686591
:1020200061705F342E6300004572726F723A2573DF
:102030002C25640D0A0000009C0000200548006863
:102040001421B0FBF1F0401E4FF0E0214861072061
:10205000086170472C00002070B5FEF707F90546AF
:10206000102D11D305F1E02090F8F04310480078CE
:10207000844201DB012000E0002028B94FF42A72DD
:102080000CA116A0FEF718F91848006800F4E060EB
:1020900017490968884201D8012000E0002028B9CA
:1020A0004FF42E7203A10DA0FEF706F970BD0000DB
:1020B000AC0000204672656552544F535C706F72DD
:1020C0007461626C655C525644535C41524D5F438F
:1020D0004D335C706F72742E630000004572726F36
:1020E000723A25732C25640D0A0000000CED00E007
:1020F000B0000020024600200BE0084B53F83030BF
:1021000033B9064B43F8301003EBC0035A6002E0CA
:10211000401C0828F1D300BF704700007C0100205C
:102120002DE9F04105460E4617462C46FFF7B4FE52
:1021300094F94400401C10B9002084F8440094F93C
:102140004500401C10B9002084F84500FFF7E6FE6A
:10215000A06B28B93A46314604F1240000F0BCF8DF
:102160002046FFF7BEFCBDE8F081000070B50546D3
:10217000FFF792FE15B92D48006800E02846044696
:10218000201DFFF73FFE78B9E06A00EB8000284988
:1021900051F8200040B994F82C10012088402549BE
:1021A0000968814323480160A06A18B104F118004E
:1021B000FFF728FE20480068401C1F4908601B48A4
:1021C0000068844209D1211D1C48FFF759FE1C48B4
:1021D0000068401C1A49086009E01A480068401E5F
:1021E000184908602046FFF7B2F8FFF7ABFBFFF78E
:1021F00095FE15480068C0B10C480068844214D1AF
:102200001248006808B9012000E0002028B940F217
:1022100065420FA113A0FEF74FF84FF0805015490B
:102220000860BFF34F8FBFF36F8F70BD4000002079
:10223000BC010020580000206C0000207804002021
:102240004C000020500000205C000020780000209E
:102250004672656552544F535C7461736B732E63A1
:10226000000000004572726F723A25732C25640DD0
:102270000A00000004ED00E00120014908607047F9
:102280006400002070B504460D462CB940F60632B5
:1022900007A10CA0FEF710F80E480168183120467F
:1022A000FFF7D4FD01212846FEF7F2FE70BD0000C5
:1022B0004672656552544F535C7461736B732E6341
:1022C000000000004572726F723A25732C25640D70
:1022D0000A0000004000002070B505460E46144676
:1022E0002DB940F6313209A10DA0FDF7E5FF1048E8
:1022F000016818312846FFF7C3FD0CB14FF0FF36D7
:1023000021463046FEF7C4FE70BD0000467265658A
:1023100052544F535C7461736B732E630000000062
:102320004572726F723A25732C25640D0A00000005
:102330004000002070B505462C46002D4BD02649A4
:10234000E06A0968C96A884245D2A06900F0004085
:1023500028B921480068C06AC0F12000A061E16A84
:1023600001EB81011D4A02EB81016069884201D1C4
:10237000012000E0002050B3201DFFF743FD78B995
:10238000E06A00EB8000154951F8200040B994F84C
:102390002C100120884012490968814310480160CF
:1023A0000D480068C06AE06294F82C100120884053
:1023B0000B49096808430A490860E16A01EB810199
:1023C000064A02EB8100211DFFF75AFD03E0024897
:1023D0000068C06AE06270BD40000020BC010020BF
:1023E0005800002010B504462CB940F6C13205A1B2
:1023F00009A0FDF761FF0C48006820600B480068E9
:10240000606010BD4672656552544F535C746173D1
:102410006B732E63000000004572726F723A257371
:102420002C25640D0A0000006800002054000020E4
:102430001CB51A4800210B468222CDE9001018A1D4
:10244000194800F041FC0446012C02D100F088FE3E
:102450000446012C15D100BF502080F31188BFF332
:102460004F8FBFF36F8F00BF4FF0FF300F490860F1
:1024700001200F49086000200E49086000F08AF82A
:102480000BE0601C08B1012000E0002028B940F2F8
:10249000847209A10DA0FDF70FFF1CBD7400002080
:1024A00049444C450000000005140008700000205D
:1024B0005C000020540000204672656552544F5362
:1024C0005C7461736B732E63000000004572726F61
:1024D000723A25732C25640D0A000000024800683A
:1024E000401C0149086070477800002010B51B4867
:1024F000006818B101201A4908602DE00020184931
:10250000086018480068B0FA80F0C0F11F0404EBBE
:102510008400154951F8200008B1012000E0002096
:1025200028B940F6F62211A115A0FDF7C5FE04EB6F
:1025300084010D4A02EB810041684968416000F165
:10254000080142688A4202D1416849684160416895
:10255000C9680F4A116000BF10BD0000780000205C
:102560006400002058000020BC0100204672656510
:1025700052544F535C7461736B732E630000000000
:102580004572726F723A25732C25640D0A000000A3
:10259000400000201CB52248014609780191FF2126
:1025A000024611700146097800919DF8001001F073
:1025B00050011C4A117007211B4A116009E01A4999
:1025C0000968491E184A11609DF800104906090E55
:1025D00000919DF8001001F080018029EFD0124990
:1025E00009680902104A11601146098801F4E06186
:1025F00011600B4A019911700C48006840F470009A
:102600000A4908600846006840F070400860FFF71B
:1026100015FD002006490860FDF7F2FD00201CBDF5
:1026200000E400E0AC000020B000002020ED00E05D
:10263000A800002010B500BF502080F31188BFF320
:102640004F8FBFF36F8F00BF00F084FB18B14FF0C6
:1026500080500449086000BF002080F3118800BF4B
:1026600010BD000004ED00E02DE9F84305460E46DC
:1026700090460DB1012000E0002028B94FF4C4724B
:102680000DA112A0FDF718FE0EB9002701E005FB11
:1026900006F707F15400FFF76DFA044644B104F160
:1026A000540943464A46314628460094FEF7BEFE8A
:1026B0002046BDE8F88300004672656552544F53CA
:1026C0005C71756575652E63000000004572726F60
:1026D000723A25732C25640D0A0000002DE9FF478E
:1026E00082B005460E461F464FF0000A2C462CB914
:1026F00040F2DC4261A166A0FDF7DEFD0EB9206C60
:1027000008B9012000E0002028B940F2DD425BA1B9
:102710005FA0FDF7D1FD00F007FB08B9049808B9E8
:10272000012000E0002028B94FF49C6253A158A07A
:10273000FDF7C2FD00BFFFF7AFFBD4F83890B9F149
:10274000000F3DD0D4F80C8031462046FEF7ACFD9A
:10275000DFB9A9F10100A063206810B9FFF7B2FA50
:102760006060206908B9012000E0002010BB04F17E
:10277000100000F00BFCE8B14FF0805048490860B1
:10278000BFF34F8FBFF36F8F14E0C4F80C80606A03
:1027900008B9012000E0002060B904F1240000F035
:1027A000F5FB38B14FF080503D490860BFF34F8FC3
:1027B000BFF36F8FFFF7B2FB012006B0BDE8F087D3
:1027C000049818B9FFF7AAFB0020F6E7BAF1000F4A
:1027D00004D16846FFF706FE4FF0010AFFF79EFBA3
:1027E000FFF77CFEFFF758FB94F94400401C10B93A
:1027F000002084F8440094F94500401C10B90020E2
:1028000084F84500FFF78AFB04A9684600F00CFA3B
:1028100040BB2046FEF71EFFF0B1206830B9FFF73D
:102820003BFB6068FFF786FDFFF778FB04F12400AF
:102830000499FFF727FD2046FFF753F900F000FC4D
:1028400000287FF478AF4FF0805015490860BFF33F
:102850004F8FBFF36F8F6EE72046FFF742F900F00E
:10286000EFFB68E72046FFF73CF900F0E9FB204664
:10287000FEF7F0FE0028EED000209EE74672656568
:1028800052544F535C71756575652E6300000000EE
:102890004572726F723A25732C25640D0A00000090
:1028A00004ED00E070B505460E462C462CB940F20A
:1028B0001B121EA122A0FDF7FFFCFFF7EDFAD4E9E1
:1028C0000F12206801FB020060600020A0632068F6
:1028D000A060E06B401E226C216800FB0210E060EB
:1028E000FF2084F8440084F845009EB9206908B9A7
:1028F000012000E00020A8B904F1100000F046FB20
:1029000080B14FF0805012490860BFF34F8FBFF382
:102910006F8F07E004F11000FFF788FA04F124003C
:10292000FFF784FAFFF7FAFA012070BD4672656579
:1029300052544F535C71756575652E63000000003D
:102940004572726F723A25732C25640D0A000000DF
:1029500004ED00E02DE9FF4383B0064688461D469E
:102960004FF0000934462CB940F2D92260A165A08D
:10297000FDF7A2FCB8F1000F01D1206C08B90120CD
:1029800000E0002028B940F2DA2259A15DA0FDF74D
:1029900093FC022D02D1E06B012801D1012000E05F
:1029A000002028B940F2DB2251A156A0FDF784FC9B
:1029B00000F0BAF908B9059808B9012000E0002034
:1029C00028B940F2DE224AA14EA0FDF775FC00BFF7
:1029D000FFF762FAA06BE16B884201D3022D38D178
:1029E0002A4641462046FEF774FC0746A06C68B1B3
:1029F00029462046FEF74AFE28B34FF0805045494D
:102A00000860BFF34F8FBFF36F8F1CE0606A08B997
:102A1000012000E0002068B904F1240000F0B6FABB
:102A200088B14FF080503B490860BFF34F8FBFF330
:102A30006F8F08E03FB14FF0805036490860BFF318
:102A40004F8FBFF36F8FFFF769FA012007B0BDE822
:102A5000F083059818B9FFF761FA0020F6E7B9F19D
:102A6000000F04D101A8FFF7BDFC4FF00109FFF7EB
:102A700055FAFFF733FDFFF70FFA94F94400401CB5
:102A800010B9002084F8440094F94500401C10B9A6
:102A9000002084F84500FFF741FA05A901A800F0DD
:102AA000C3F8F0B92046FEF7E2FDA0B104F1100032
:102AB0000599FFF7E7FB2046FFF713F800F0C0FA8F
:102AC000002885D14FF0805012490860BFF34F8F26
:102AD000BFF36F8F7CE72046FFF703F800F0B0FAF2
:102AE00076E72046FEF7FDFF00F0AAFA0020ADE7EA
:102AF0004672656552544F535C71756575652E63FA
:102B0000000000004572726F723A25732C25640D27
:102B10000A00000004ED00E02DE9F05F80468A46DF
:102B200015461E4644462CB940F29F3235A13AA0C4
:102B3000FDF7C2FBBAF1000F01D1206C08B90120EA
:102B400000E0002028B94FF468722EA132A0FDF7F2
:102B5000B3FB022E02D1E06B012801D1012000E07D
:102B6000002028B940F2A13226A12BA0FDF7A4FB3A
:102B7000FFF772FA00BF5021EFF3118081F3118843
:102B8000BFF34F8FBFF36F8F00BF0746A06BE16BA2
:102B9000884201D3022E2BD194F945B032465146DA
:102BA0002046FEF796FB0BF10100C8B9A06C40B1BE
:102BB00031462046FEF76AFDB8B1B5B10120286064
:102BC00013E0606A08B9012000E0002068B904F150
:102BD000240000F0DBF940B13DB10120286004E0A1
:102BE0000BF1010040B284F845004FF0010901E00B
:102BF0004FF0000900BF87F3118800BF4846BDE8C9
:102C0000F09F00004672656552544F535C717565C4
:102C100075652E63000000004572726F723A25736D
:102C20002C25640D0A0000002DE9F04104460D46F4
:102C30002CB940F6CB3219A11DA0FDF73DFB2DB9F3
:102C400040F6CC3215A11AA0FDF736FBFFF724F9A8
:102C50001B4807682868401C08B9002619E0194974
:102C600020680968884204D06068B84201D801260B
:102C70000FE06068381A2968884209D228686168BC
:102C8000791A401A28602046FFF7ACFB002600E0C6
:102C90000126FFF743F93046BDE8F08146726565CD
:102CA00052544F535C7461736B732E6300000000C9
:102CB0004572726F723A25732C25640D0A0000006C
:102CC00054000020680000202DE9FF4F85B08046A9
:102CD00089461746DDE912ABB800FEF74BFF064602
:102CE00056B15C20FEF746FF04460CB1266304E0B3
:102CF0003046FFF749F900E000247CB10020CDE91F
:102D000000ABCDE902403A4649464046089BFEF7F3
:102D1000A5FB2046FEF708FA012501E04FF0FF353C
:102D2000284609B0BDE8F08F0549096809B90120B6
:102D300005E00449096809B9022000E00020704755
:102D40005C000020780000200149086870470000FE
:102D5000540000202DE9F0414FF000084148006880
:102D6000002872D140480068451C3F480560EDB915
:102D70003E480068006808B9012000E0002028B93A
:102D800040F6D9123AA13FA0FDF796FA37480768F6
:102D900040480068354908603E4807603E48006882
:102DA000401C3D490860FEF7CDFD00BF3B48006870
:102DB00085423CD300BF2D480068006808B9012057
:102DC00000E0002020B14FF0FF30344908602DE0D2
:102DD00026480068C068C4686668B54202D22F48B9
:102DE000066023E0201DFFF70DF8A06A18B104F17A
:102DF0001800FFF707F894F82C10012088402849A4
:102E00000968084326490860E16A01EB8101254A07
:102E100002EB8100211DFFF733F82349E06A0968BE
:102E2000C96A8842C7D34FF00108C4E700BF1E48F3
:102E30000068C06A00EB80001A4951F820000128A0
:102E400001D94FF0010805E0FFE718480068401C71
:102E5000164908601648006808B14FF0010840465E
:102E6000BDE8F081780000205400002044000020DC
:102E70004672656552544F535C7461736B732E6375
:102E8000000000004572726F723A25732C25640DA4
:102E90000A000000480000206800002070000020A8
:102EA00058000020BC0100204000002060000020ED
:102EB0006400002070B505462C460026002D4BD03E
:102EC00026480068844201D1012000E0002028B992
:102ED00040F6C76222A127A0FDF7EEF9206D28B9C0
:102EE00040F6C9621EA123A0FDF7E6F9206D401E41
:102EF0002065E16CE06A88422ED0206D60BB201D09
:102F0000FEF780FF78B9E06A00EB80001D4951F8B8
:102F1000200040B994F82C10012088401A49096813
:102F2000814319480160E06CE062E06AC0F1200072
:102F3000A06194F82C1001208840134909680843C7
:102F400011490860E16A01EB81010E4A02EB810040
:102F5000211DFEF795FF0126304670BD4000002080
:102F60004672656552544F535C7461736B732E6384
:102F7000000000004572726F723A25732C25640DB3
:102F80000A000000BC0100205800002070B5064671
:102F9000F068C4682CB940F661321AA11EA0FDF792
:102FA0008BF904F11800FEF72DFF1F480068A8B93F
:102FB000201DFEF727FF94F82C10012088401B49A4
:102FC0000968084319490860E16A01EB8101184A60
:102FD00002EB8100211DFEF753FF04E004F118010C
:102FE0001448FEF74DFF1449E06A0968C96A88422F
:102FF00004D9012501201149086000E00025284678
:1030000070BD00004672656552544F535C74617325
:103010006B732E63000000004572726F723A257365
:103020002C25640D0A0000007800002058000020C4
:10303000BC01002064040020400000206400002047
:1030400070B5002400263448006828B94FF4FD62AA
:1030500032A137A0FDF730F9FEF71EFF2E480068B9
:10306000401E2D4908600846006800284FD13448AA
:10307000006800284BD024E03248C068C46804F1DE
:103080001800FEF7BFFE201DFEF7BCFE94F82C10C2
:10309000012088402C49096808432B490860E16AEF
:1030A00001EB8101294A02EB8100211DFEF7E8FEB8
:1030B0002749E06A0968C96A884202D30120254984
:1030C00008602048006808B9012000E000200028BE
:1030D000D2D00CB1FEF736FC1F48056865B100BFC1
:1030E000FFF738FE10B101201A4908606D1E002D4F
:1030F000F6D10020184908601648006838B101264A
:10310000300716490860BFF34F8FBFF36F8FFEF78C
:1031100005FF304670BD00007800002046726565EE
:1031200052544F535C7461736B732E630000000044
:103130004572726F723A25732C25640D0A000000E7
:10314000500000206404002058000020BC01002032
:1031500040000020640000206000002004ED00E03A
:103160001CB50024FEF73CF80B48006858B10B482A
:103170001F2100234FF48272CDE9001008A10A48F4
:10318000FFF7A2FD04462CB940F2331207A10CA0B0
:10319000FDF792F820461CBD840000208800002026
:1031A000546D722053766300C91A00084672656533
:1031B00052544F535C74696D6572732E6300000046
:1031C0004572726F723A25732C25640D0A00000057
:1031D0002DE9FF4704460D4616461F46DDF83080B0
:1031E0004FF000092CB94FF4D37217A11BA0FDF7C3
:1031F00063F81E48006810B3009501960294062DEE
:1032000015DAFFF791FD022808D1002342466946EE
:1032100016480068FFF79EFB814610E000231A461F
:10322000694612480068FFF795FB814607E00023D6
:103230003A4669460D480068FFF76EFC81464846ED
:1032400004B0BDE8F08700004672656552544F53E4
:103250005C74696D6572732E630000004572726F55
:10326000723A25732C25640D0A00000084000020AA
:103270009032000800000020B40000006C0100083B
:1032800044330008B4000020745A0000880100088C
:10329000000000000000000000000000000000002E
:1032A0000000000000000000000001020304010211
:1032B00003040607080902040608000000A24A04E5
:1032C00000000000000000000102030406070809D6
:1032D00000000000000000000000000000000000EE
:1032E00000000000000000000000000000000000DE
:1032F00000000000000000000000000000000000CE
:1033000000000000000000000000000000000000BD
:1033100000000000000000000000000000000000AD
:10332000000000000000000000000000000000009D
:103330000000000000000000AAAAAAAA00000000E5
:043340000000000089
:0400000508000131BD
:00000001FF
